:020000040800F2
:1000000000000220B902000845DE000849DE0008B1
:100010004DDE000851DE000855DE0008000000003B
:1000200000000000000000000000000031C50008D2
:1000300059DE000800000000F5C500085DDE00087C
:10004000E9030008E9030008E9030008E9030008E0
:10005000E9030008E903000881DE0008E90300085D
:10006000E9030008E9030008E9030008E9030008C0
:10007000E9030008E9030008E9030008E9030008B0
:10008000E9030008E9030008D9C20008E9030008F1
:10009000E9030008E9030008E9030008E903000890
:1000A000E9030008E9030008E9030008E903000880
:1000B000E9030008E9030008E9030008E903000870
:1000C000E9030008E9030008E9030008E903000860
:1000D000E9030008E9030008E9030008E903000850
:1000E000E9030008E9030008E9030008E903000840
:1000F000E9030008E9030008E9030008E903000830
:10010000E9030008E9030008E9030008E90300081F
:10011000E9030008C9BA0008E9030008E903000878
:10012000E9030008E9030008E9030008E9030008FF
:10013000E9030008E9030008E9030008E9030008EF
:10014000E9030008E9030008E903000871DE00087C
:10015000E9030008E9030008E9030008E9030008CF
:10016000C9C20008B9C20008E9030008E903000891
:10017000E9030008E9030008E903000800000000A3
:10018000E9030008E903000800B583B002F0DAFED5
:10019000384B394A1360394A136039490CE00A6810
:1001A0004B6801F10C04886803E01168196004339E
:1001B00004329842F9D82146324B9942EFD32E4B64
:1001C0001A68314B9A4204D12C4B1A682F4B9A4231
:1001D00000D0FEE7274B2E4A13602E4A13602E4BA9
:1001E0000AE0194651F8082B5B6802E00020106015
:1001F00004329A42FAD30B46284A9342F1D3244B55
:100200001B6813B9234B1B6803B1FEE70DF078FCA4
:1002100001A8694602F022FE214C224B1C1BA410AF
:10022000002504E01E4B53F8253098470135AC42B9
:10023000F8DC1D4C1D4B1C1BA410002504E01A4BC0
:1002400053F8253098470135AC42F8DC0198009905
:100250000DF07CFC0546164C164B1C1BA41004E04C
:10026000013C134B53F824309847002CF8DC284607
:1002700002F0C6FDBABADECA0000002090000020DD
:10028000EC030008040400087856341232547698BF
:1002900098000020584400200404000814040008BA
:1002A00014040008140400081404000814040008CE
:1002B000140400081404000808B5FFF765FF00BF28
:1002C00000BEFEE71EF0040F0CBFEFF30880EFF353
:1002D00009807146414A10472DE9F04182B0044639
:1002E0008846134B5E6B9D6B9F6A1B6B13F0020F6E
:1002F0000DD00F4BDB6A002B09DA4BF6AB6102F035
:10030000A7FE20B14FF00042094BDA620CE0094829
:1003100002F0B8FDCDF800802046394632462B4623
:1003200002F01EFE00BEFEE702B0BDE8F08100BF95
:1003300000ED00E0BCED000800BEFEE71EF0040F7B
:100340000CBFEFF30880EFF309807146244A104791
:100350002DE9F04182B007468846084B5D6B9C6BE7
:100360009E6A074802F08EFDCDF80080384631467F
:100370002A46234602F0F4FD00BEFEE700ED00E051
:10038000CCED00081EF0040F0CBFEFF30880EFF374
:1003900009807146134A10472DE9F04182B00746A3
:1003A0008846084B5D6B9C6B9E6A074802F06AFDAD
:1003B000CDF80080384631462A46234602F0D0FD6B
:1003C00000BEFEE700ED00E0D8ED000800BEFEE74D
:1003D00000BEFEE700BEFEE770470000D90200083D
:0C03E000510300089903000800BEFEE76E
:1003EC00F82201080000002094000020F8220108E7
:1003FC000000001000000010980000205C44002059
:08040C000000001000000010C8
:10042000704700BF10B5044601F01AFF064BA3FB4E
:100430000030800900F0CEF94FF0FF302146002255
:1004400000F072F9002010BDD34D621008B50B4BBF
:100450001A6842F400721A601A6842F480621A60E4
:100460001A6842F480721A60032000F03FF90F20EE
:10047000FFF7D8FFFFF7D4FF002008BD003C024083
:10048000024A136801331360704700BF9C000020CC
:10049000014B1868704700BF9C00002010B504464F
:1004A0008369012B04D9314840F2312102F0DEFC8E
:1004B000E36A6BB1B3F1805F0AD0B3F1005F07D09C
:1004C000B3F1405F04D0294840F2322102F0CEFC63
:1004D00094F83C30012B46D0012384F83C3094F84A
:1004E0003D30DBB2222B03D1322384F83D3002E0D1
:1004F000122384F83D300023236423689A6812F0A5
:10050000010F0BD19A6842F001029A60002302E0C9
:1005100000BF01339BB2B3F5077FF9D92268536856
:1005200043F0806353602268536843F020035360B4
:100530000F4B5B6813F01F0F07D1E36A7BB922688A
:10054000936843F08043936009E02368094A93422B
:1005500005D1E26A1AB99A6842F080429A60002096
:1005600084F83C0010BD022010BD00BFF0EA000876
:1005700000230140002001400368D86C704700BF91
:10058000704700BF704700BF10B504468369012B58
:1005900004D9544840F29B2102F068FC236A013BD5
:1005A0000F2B04D94F484FF4277102F05FFC6369A9
:1005B000022B04D94B4840F29D2102F057FC2268DF
:1005C0001168536803F0200311F0020F36D0002B9E
:1005D00034D094F83D30DBB2252B03D1352384F899
:1005E0003D3002E0152384F83D30A369FBB9E36A8E
:1005F000EBB963694BB9536823F020035360226859
:10060000536823F08063536011E0636B0BB9236A76
:100610006363636B013B6363636B43B9536823F0AC
:10062000200353602268536823F0806353602046A0
:100630000BF010FE23686FF002021A60236819683D
:100640005A6802F0800211F0040F21D002B394F82E
:100650003D20D2B2152A03D1352284F83D2002E094
:10066000252284F83D205A6802F480619A6802F4D9
:100670004012A06900B121B91AB95A6822F080026B
:100680005A60204600F030F823686FF004021A60C8
:1006900022681168536803F0400311F0010F09D07C
:1006A00043B1062384F83D306FF001031360204608
:1006B000FFF766FF22681168536803F0806311F04A
:1006C000200F0DD063B1042384F83D30236C43F038
:1006D000010323646FF0200313602046FFF752FFED
:1006E00010BD00BFF0EA0008704700BF10B5044617
:1006F000C31E042B03D90A48A42102F0B7FB04F05F
:100700000700084AD36823F4E0631B041B0C43EA88
:10071000002040F0BF6040F40030D06010BD00BF4A
:1007200020EB000800ED00E070B504460E461546CB
:100730000F2A03D91A48BC2102F098FB0F2E03D9C7
:100740001748BD2102F092FB164BDB68C3F302236E
:10075000C3F10702042A28BF0422191D062901D962
:10076000D81E00E00020012303FA02F2013A3240D1
:1007700002FA00F183405A1E2A400A43002C06DA8E
:1007800004F00F041201D2B2074B1A5570BD1201CA
:10079000D2B204F1604404F5614484F8002370BDD2
:1007A00020EB000800ED00E014ED00E010B5041EA1
:1007B00003DA0648D02102F059FB610904F01F0456
:1007C0000123A340024A42F8213010BD20EB00086B
:1007D00000E100E00138B0F1807F0AD2064B58609A
:1007E000F021064A82F823100020986007221A6040
:1007F00070470120704700BF10E000E000ED00E00E
:100800002DE9F84F80460F46A04B984223D003F5C0
:10081000806398421FD003F5806398421BD003F594
:100820008063984217D003F58063984213D003F594
:10083000806398420FD003F5806398420BD003F594
:100840008063984207D003F58063984203D09048B4
:10085000C52102F00BFB3B881BB98D48C62102F075
:1008600005FB7B68012B22D9112B20D0022B1ED037
:10087000122B1CD0874A934219D002F58012934262
:1008800015D002F58012934211D0A2F5F8129342CE
:100890000DD002F58012934209D002F580129342E6
:1008A00005D0032B03D07A48C72102F0DFFABB68DA
:1008B000022B03D97648C82102F0D8FA002423E19C
:1008C000A1460125A5403B6803EA050AAA4540F078
:1008D0001A817B68022B01D0122B4AD13B69C3B32A
:1008E000092B36D0ABB3A3B39BB393B3012B30D05A
:1008F0002FD0022B2DD02CD02BD0032B29D0042B82
:1009000027D026D025D0052B23D022D0092B20D0CC
:10091000062B1ED0092B1CD0072B1AD019D018D0AB
:10092000082B16D015D014D0092B12D011D00A2BB9
:100930000FD00ED00B2B0CD00C2B0AD009D00D2BC6
:1009400007D00C2B05D00F2B03D05148D92102F032
:100950008DFAE608083658F8261004F007008000E3
:100960000F23834021EA03023B698340134348F885
:100970002630D8F800304FEA440B032606FA0BF66F
:10098000F64306EA03027B6803F0030303FA0BF362
:100990001343C8F800307B685A1E012A03D9112B73
:1009A00001D0122B1CD1FB68032B03D93848EC2152
:1009B00002F05CFAD8F8083006EA0302FB6803FA92
:1009C0000BF31343C8F80830D8F8043023EA0503C2
:1009D0007D68C5F3001505FA09F51D43C8F80450F4
:1009E000D8F80C303340BE6806FA0BF61E43C8F840
:1009F0000C607B6813F0805F00F08580264A536CA2
:100A000043F480435364A308991CA2F5803252F842
:100A1000211004F0030080000F22824021EA02012D
:100A20001A4A90453AD002F5806290452BD002F5E3
:100A30008062904525D002F5806290451FD002F576
:100A40008062904519D002F58062904513D002F57E
:100A5000806290450DD002F58062904507D002F586
:100A60008062904501D1082219E0092217E007228F
:100A700015E0062213E0052211E004220FE0032214
:100A80000DE002220BE0012209E000BF000002405D
:100A900054EB000800001110003802400022824090
:100AA0000A4302331B4941F823201B4B1A686FEAA3
:100AB0000A0303EA0201786810F4803F01D04AEA91
:100AC0000201154A1160526803EA0201786810F4C5
:100AD000003F01D04AEA02010F4A5160926803EADE
:100AE0000201786810F4801F01D04AEA02010A4A24
:100AF0009160D2681340796811F4001F01D04AEA6E
:100B00000203054AD36001340F2C7FF6D9AEBDE84D
:100B1000F88F00BF00380140003C014070B5064628
:100B200015460C4621B909484FF4D67102F09EF9DA
:100B3000012D04D9054840F2AD1102F097F90DB12D
:100B4000B46170BD2404B46170BD00BF54EB0008F3
:100B500038B505460C4621B9044840F2C31102F0ED
:100B600085F96B695C406C6138BD00BF54EB0008CF
:100B7000704700BF08B5044B5B69034203D0024BCA
:100B80005861FFF7F5FF08BD003C0140F8B5066865
:100B9000326A02F00F05C2F34343C2F30A14022B78
:100BA00032D18CB305EB8503DB000344D96B59B319
:100BB00007463046224601F033FFAB002B44DB00F2
:100BC0003B44DA6B2244DA635A6C22445A6406EBE3
:100BD0004516D6F810250D4B1340ABB1D6F80035AD
:100BE00023F08043C6F80035D6F8003543F00043C3
:100BF000C6F80035AB005A19D2003A4492F8483092
:100C000083F0010382F84830F8BD00BF0000F81FF0
:100C100030B583B005460468D4F840340193D4F865
:100C200040340093009B23F02E030093019B13F0AC
:100C3000020F0DD0019B13F0010F05D0A36923F023
:100C40000053A36102F040FA009B43F002030093BB
:100C5000019B13F0080F37D0009B43F0080300936B
:100C6000019B13F0040F24D0AB69022B0FD1019B21
:100C700003F4C023B3F5802F04D12868022101F0CA
:100C8000EDFE0BE02868012101F0E8FE06E0EB68CC
:100C9000032B03D14EF66022C4F80424284602F048
:100CA00013FAEB6883B92A68936943F000539361A0
:100CB0000AE0D4F8403423F02E03C4F840342A6804
:100CC000936943F000539361019B13F0200F03D00D
:100CD000009B43F020030093009BC4F8403403B012
:100CE00030BD00BFF8B506460D46076807EB411753
:100CF00007F5A064A36813F0040F06D00423A360D3
:100D0000E36843F00203E36034E0A36813F0200FCC
:100D100002D02023A3602DE0A36813F0080F12D0A7
:100D2000E36843F00203E36001EB8103DB0003446B
:100D3000052283F855201023A3600823A3600068D0
:100D400001F0DEFE16E0A36813F4806F12D0E368B2
:100D500043F00203E360006801F0D2FE1023A360B9
:100D600005EB8503DB003344082283F855204FF45C
:100D70008063A360A36813F4007F0BD0E36843F0A3
:100D80000203E3603068294601F0BAFE4FF40073B5
:100D9000A360F8BDA36813F0010F46D0336963B1B7
:100DA000AB005A19D2003244116C2269C2F312020C
:100DB0008A1A2B44DB0033445A64AB002B44DB001B
:100DC0003344012283F8552000211965A26093F86D
:100DD00037300BB1022B0AD1E36843F00203E36022
:100DE0003068294601F08CFE1023A36012E0032B2B
:100DF00010D1D7F8003543F00053C7F8003505EBA4
:100E00008503DB003344012283F854203046294611
:100E100002F066F9AB005A19D200324492F8483019
:100E200083F0010382F84830F8BDA36813F0020F85
:100E300054D0E36823F00203E36005EB8503DB0095
:100E4000334493F85530012B07D105EB8503DB00C4
:100E50003344012283F8542033E0052B07D105EBFE
:100E60008503DB003344052283F8542029E0062B58
:100E700001D0082B25D1AB002B44DB0033441A6D85
:100E8000511C1965032A09D9AB002B44DB003344FC
:100E900000221A65042283F8542006E005EB85033E
:100EA000DB003344022283F85420D7F8003523F0C6
:100EB0008043C7F80035D7F8003543F00043C7F842
:100EC00000350223A36005EB8503DB003344304685
:100ED000294693F8542002F003F9F8BDA36813F0F3
:100EE000800F15D0E36843F00203E360AB005A19AA
:100EF000D2003244116D013111651346062283F888
:100F000055203068294601F0FBFD8023A360F8BD21
:100F1000A36813F0100F28D005EB8503DB003344E2
:100F200093F83730032B08D1E36843F00203E36002
:100F30003068294601F0E4FD0EE00BB1022B0BD125
:100F4000D7F8003523F08043C7F80035D7F80035CF
:100F500043F00043C7F8003505EB8505ED00354447
:100F6000032385F855301023A360F8BDF8B5036856
:100F700003EB411303F5A064A26812F0040F06D03E
:100F80000423A360E36843F00203E360F8BD0E4668
:100F90000546A26812F0200F1FD02023A36001EBAA
:100FA0008103DB00034493F83530012B40F02D81A1
:100FB0008F007B18DB000344042283F85520E3688C
:100FC00043F00203E360006801F09AFDB919C9001B
:100FD0002944022381F85430F8BDA26812F0400F72
:100FE00014D08B005A18D2000244042182F8551004
:100FF000134600221A65E36843F00203E3600068C9
:10100000314601F07DFD4023A360F8BDA26812F4D3
:10101000007F0AD0E36843F00203E360006801F058
:101020006FFD4FF40073A360F8BDA26812F0010FCA
:1010300014D08F007B18DB00034400221A65E3689C
:1010400043F00203E360006801F05AFD0123A3604E
:10105000B919C900294481F85530F8BDA26812F0C9
:10106000080F10D00823A360E36843F00203E36095
:10107000006801F045FD06EB8601C90029440523FF
:1010800081F85530F8BDA26812F0100F15D08F000E
:101090007B18DB00034400221A65E36843F0020377
:1010A000E360006801F02CFDB919C900294403234D
:1010B00081F855301023A360F8BDA26812F0800FAC
:1010C00010D0E36843F00203E360006801F018FD0C
:1010D00006EB8601C9002944062381F85530802398
:1010E000A360F8BDA26812F4806F13D0E36843F0E8
:1010F0000203E360006801F003FD1023A3604FF4D6
:101100008063A36006EB8601C9002944082381F8A7
:101110005530F8BDA26812F0020F76D0E26822F0D6
:101120000202E26001EB8102D200024492F85520F3
:10113000012A14D18B000B44DB00034483F85420B4
:1011400093F83730022B54D18B000B44DB0003445F
:1011500093F8492082F0010283F8492049E0032AEC
:1011600007D101EB8103DB000344022283F8542002
:101170003FE0042A0AD18B000B44DB000344022227
:1011800083F85420002283F8352032E0052A06D166
:1011900001EB8103DB00034483F8542029E0062A95
:1011A00001D0082A25D1B2003244D2002A44116D60
:1011B000481C1065032909D9B2003244D2002A44E0
:1011C00000211165042182F8541006E006EB860226
:1011D000D2002A44022182F85410D3F8002522F0CC
:1011E0008042C3F80025D3F8002542F00042C3F83E
:1011F00000250223A36006EB8603DB002B44284670
:10120000314693F8542001F06BFFF8BDF8B5044661
:101210000568284601F01EFC012840F094802068F3
:1012200001F014FC002800F08E80206801F00EFC14
:1012300010F4001F03D023684FF400125A61206895
:1012400001F004FC10F4801F03D023684FF48012D7
:101250005A61206801F0FAFB10F0806F03D0236818
:101260004FF080625A61206801F0F0FB10F0020F2D
:1012700002D0236802225A61206801F0E7FB10F0D7
:10128000005F10D0D5F8403423F02E03C5F8403469
:10129000204601F01FFF2068012101F0DFFB2368D9
:1012A0004FF000525A61206801F0D0FB10F0807FAF
:1012B00002D02046FFF7ACFC206801F0C7FB10F01D
:1012C000080F05D0204601F0F9FE236808225A6174
:1012D000206801F0BBFB10F0007F21D0206801F0F6
:1012E000FFFB0746002614E00123B3403B420FD02A
:1012F00005EB4613D3F8003513F4004F04D0204615
:10130000F1B2FFF7EFFC03E02046F1B2FFF72EFE4B
:101310000136A368B342E7D823684FF000725A61E0
:10132000206801F093FB10F0100F0CD02268936935
:1013300023F0100393612046FFF728FC226893698D
:1013400043F010039361F8BD38B590F88832012B53
:101350000ED00446012580F88852006801F032FB67
:101360002068294601F09AFB002084F8880238BDE5
:10137000022038BD90F88832012B0BD010B50446FE
:10138000012380F88832006801F0BAFC002084F85C
:10139000880210BD022070470268436A591C4162EE
:1013A0001B781361438D013B9BB24385438D9BB2F8
:1013B00023B90268536823F48063536000207047A8
:1013C000438D9BB24BB10268436A591C41621B7842
:1013D0001361438D013B9BB243850020704700BFE2
:1013E000438D9BB24BB10268436A591C41621B7822
:1013F0001361438D013B9BB243850020704700BFC2
:10140000438D9BB24BB1436A5A1C42620268126917
:101410001A70438D013B9BB243850020704700BF8B
:10142000438D9BB24BB1436A5A1C426202681269F7
:101430001A70438D013B9BB243850020704700BF6B
:1014400082B003685A6901929B690193019B002055
:1014500002B070472DE9F04106460C4690461D4605
:10146000FFF716F80746B8F1000F12D03DE0B5F1CE
:10147000FF3F0ED025B1FFF70BF8C01BA84208D9DB
:10148000012386F83530002386F834300320BDE888
:10149000F081C4F30743012B08D133685B6924EA68
:1014A00003039BB2003318BF012307E033689B6935
:1014B00024EA03039BB2003318BF0123002BD6D1CB
:1014C0000020BDE8F081B5F1FF3F0ED025B1FEF759
:1014D000DFFFC01BA84208D9012386F8353000235E
:1014E00086F834300320BDE8F081C4F30743012BB4
:1014F00008D133685B6924EA03039BB2B3FA83F330
:101500005B0907E033689B6924EA03039BB2B3FAE3
:1015100083F35B09002BD6D10020BDE8F08100BF2A
:1015200090F83530DBB2012B23D121B32AB310B4AC
:101530000468A36913F0020F21D190F83430012B15
:101540001FD0012380F83430222380F83530002367
:101550008363416202854285226842F48062226090
:1015600080F8343001684A6842F4E0624A60184604
:1015700008E00220704701207047012070470220D8
:1015800000E002205DF8044B704700BF704700BFC9
:10159000704700BF704700BF38B504460268536803
:1015A00023F4E063536003686FF480625A61026859
:1015B000136823F480631360084901222323FFF793
:1015C00049FF38B90546012384F835302046FFF736
:1015D000E1FF00E00325284638BD00BF02001000EF
:1015E00030B583B004460268536823F4E063536067
:1015F00003685A6901921A6842F001021A60019B5D
:101600000268136823F480631360094901222323CD
:10161000FFF720FF38B90546012384F8353020460E
:101620000AF0E2FD00E00325284603B030BD00BF0C
:1016300002001000704700BF38B5438D9BB25BB10C
:101640000268436A591C41621B781361438D013B58
:101650009BB24385002525E004460268536823F4C5
:10166000E06353600268136843F4007313600E492B
:1016700001222323FFF7EEFE054690B994F835309A
:10168000DBB2322B06D1012384F835302046FFF738
:10169000D1FF07E0012384F835302046FFF776FFBD
:1016A00000E00325284638BD02001000704700BF47
:1016B00038B5438D9BB2032B0BD9436A5A1C426247
:1016C000026812691A70438D013B9BB24385002565
:1016D00039E0023B012B06D80268536823F480638B
:1016E000536000252FE004460268536823F4E0634A
:1016F0005360436A5A1C4262026812691A70438D31
:10170000013B9BB24385114901222323FFF7A2FE2F
:101710000546B8B92268136823F40063136094F88F
:101720003530DBB2422B06D1012384F83530204618
:10173000FFF7BCFF07E0012384F835302046FFF7B0
:1017400027FF00E00325284638BD00BF0200100037
:1017500038B5438D9BB2032B10D10268136823F474
:1017600080631360436A5A1C4262026812691A70ED
:10177000438D013B9BB2438500244EE0438D9BB2D9
:10178000022B3DD105460268136843F400731360D1
:10179000436A5A1C4262026812691A70438D013B07
:1017A0009BB24385436A5A1C4262026812691A70EE
:1017B000438D013B9BB243850268536823F4407319
:1017C0005360174901222323FFF744FE044618BB48
:1017D0002A68136823F40063136095F83530DBB290
:1017E000422B06D1012385F835302846FFF75EFFEE
:1017F00013E0012385F835302846FFF7C9FE0CE0D9
:10180000436A5A1C4262026812691A70438D013B96
:101810009BB24385002400E00324204638BD00BF6E
:101820000200100038B503689A6912F0010F35D034
:101830009A6912F0040F18D05C695A6802F480614A
:101840005A69C2F380025B6803F4007314F0800FDE
:1018500004D019B112B9FFF79FFD38BD002A61D03D
:10186000002B5FD0FFF7E8FE38BD5C695A6802F4D0
:1018700080615A69C2F380025B6803F4007314F05C
:10188000400F04D019B112B9FFF712FF38BD002A7A
:1018900048D0002B46D0FFF75BFF38BD5D695A6822
:1018A000C2F34022596901F010019C6904F004045C
:1018B00015F0020F03D012B1FFF7C2FD38BD19B108
:1018C00012B1FFF78DFE38BDB4B15C695A6802F4FD
:1018D00080615A69C2F380025B6803F4007314F0FC
:1018E000800F04D019B112B9FFF76AFD38BDCAB133
:1018F000C3B1FFF775FD38BD5C695A6802F48061B9
:101900005A69C2F380025B6803F4007314F0400F5D
:1019100004D019B112B9FFF773FD38BD12B10BB184
:10192000FFF77EFD38BD00BF10B50446026851695F
:10193000536803F4807311F4807F07D033B1836B55
:1019400043F0010383636FF480735361226851692C
:10195000536803F4807311F4007F07D033B1A36B95
:1019600043F00203A3636FF400735361226851696B
:10197000536803F4807311F4806F17D0B3B190698A
:10198000638D9BB294F83510C9B210F0010F06D1E7
:101990002BB9122903D12046FFF7FEFD06E0A36B09
:1019A00043F00403A3636FF48063536122685169B9
:1019B000536803F4807311F4006F07D033B1A36B45
:1019C00043F00803A3636FF400635361A36B53B147
:1019D000012384F835302268136823F40063136010
:1019E00020460AF0FDFB10BD38B5044603680F2BF6
:1019F00004D9B34840F21B1101F038FA236813F000
:101A0000010F5FD06368012B06D9052B04D0AC48C9
:101A10004FF4907101F02AFAAA4B9B6803F00C0373
:101A2000042B0AD0A74B9B6803F00C03082B0DD1A5
:101A3000A44B5B6813F4800F08D0A24B1B6813F40F
:101A4000003F3FD06368002B3CD1FCE100229E4B5D
:101A50001A70FEF71DFD054607E0FEF719FD401B55
:101A600041F28833984200F2F081964B1B6813F4E0
:101A7000003FF2D12279944B1A7063688BB1FEF764
:101A800007FD054607E0FEF703FD401B41F28833E2
:101A9000984200F2DC818B4B1B6813F4003FF2D0BC
:101AA00010E0FEF7F5FC054607E0FEF7F1FC401BF1
:101AB00041F28833984200F2CC81824B1B6813F4C8
:101AC000003FF2D1236813F0020F6DD0E368012BC1
:101AD00004D97B484FF4B07101F0C8F923691F2B7A
:101AE00004D9774840F2611101F0C0F9754B9B6849
:101AF00013F00C0F0AD0734B9B6803F00C03082BF8
:101B00001CD1704B5B6813F4800F17D16D4B1B68B1
:101B100013F0020F03D0E368012B40F09C81694869
:101B2000026822F0F8012269F82393FAA3F3B3FACA
:101B300083F3DBB29A400A43026035E0E3680BB3FB
:101B40000122624B1A60FEF7A3FC054605E0FEF792
:101B50009FFC401B642800F280815A4B1B6813F0E5
:101B6000020FF4D05748036823F0F8012269F823E4
:101B700093FAA3F3B3FA83F3DBB29A4041EA020388
:101B8000036011E00022514B1A60FEF781FC05460C
:101B900005E0FEF77DFC401B642800F26081494BA4
:101BA0001B6813F0020FF4D1236813F0080F2ED036
:101BB0006369012B04D942484FF4D07101F056F902
:101BC000636993B10122424B1A60FEF761FC05463E
:101BD00005E0FEF75DFC401B642800F24281394BB2
:101BE0005B6F13F0020FF4D011E00022384B1A6043
:101BF000FEF74EFC054605E0FEF74AFC401B642854
:101C000000F231812F4B5B6F13F0020FF4D1236888
:101C100013F0040F6FD0A368012B06D9052B04D055
:101C200027484FF4E57101F021F9264A136C43F07F
:101C300080531364A2F5E432136843F48073136095
:101C4000FEF726FC054605E0FEF722FC401B642853
:101C500000F20B811F4B1B6813F4807FF4D000222D
:101C60001D4B1A70FEF714FC054607E0FEF710FC4A
:101C7000401B41F28833984200F2F980114B1B6FF0
:101C800013F0020FF2D1227A134B1A70A368012BC2
:101C900011D1FEF7FDFB054607E0FEF7F9FB401BFF
:101CA00041F28833984200F2E480064B1B6F13F038
:101CB000020FF2D01FE0FEF7EBFB054616E000BF77
:101CC00094EB00080038024002380240000047420E
:101CD000800E47420070004070380240FEF7D8FB8B
:101CE000401B41F28833984200F2C580684B1B6F5D
:101CF00013F0020FF2D1A369022B04D9654840F218
:101D00000E2101F0B3F8A369002B00F0B680604A01
:101D1000926802F00C02082A00F0B180022B7FD1F9
:101D2000E3693BB1B3F5800F04D05A4840F2172164
:101D300001F09CF8236A3F2B04D956484FF40671F2
:101D400001F094F8636AC03BF02B04D9514840F28B
:101D5000192101F08BF8A36A022B0AD0042B08D0BA
:101D6000062B06D0082B04D04A4840F21A2101F075
:101D70007DF8E36A043B0B2B04D9464840F21B2153
:101D800001F074F80022444B1A60FEF781FB05460F
:101D900004E0FEF77DFB401B642872D83C4B1B68B7
:101DA00013F0007FF5D1216A626A47F6C07393FA97
:101DB000A3F3B3FA83F3DBB29A401143A36A5B083F
:101DC000013B4FF4403292FAA2F2B2FA82F2D2B25E
:101DD00093400B43E26943EA0201E36A4FF0706209
:101DE00092FAA2F2B2FA82F2D2B203FA02F241EA13
:101DF000020343F00053264A53600122264B1A6027
:101E0000FEF746FB044604E0FEF742FB001B642895
:101E100039D81F4B1B6813F0007FF5D0002038BD68
:101E200000221D4B1A60FEF733FB044604E0FEF768
:101E30002FFB001B642828D8154B1B6813F0007F6C
:101E4000F5D1002038BD012038BD032038BD032066
:101E500038BD032038BD012038BD032038BD032024
:101E600038BD032038BD032038BD032038BD032012
:101E700038BD032038BD032038BD002038BD012007
:101E800038BD032038BD032038BD032038BD00BF56
:101E90000038024094EB00086000474270B50446E9
:101EA0000D460368013B0E2B04D9884840F27E2181
:101EB00000F0DCFF072D04D9844840F27F2100F0B8
:101EC000D5FF834B1B6803F00F03AB4280F08B8080
:101ED000EAB27F4B1A701B6803F00F03AB4240F06D
:101EE0005181236813F0020F1DD0A368A3B1802B8A
:101EF00012D0902B10D0A02B0ED0B02B0CD0C02B1A
:101F00000AD0D02B08D0E02B06D0F02B04D06F489D
:101F100040F2952100F0AAFF6E498B6823F0F00291
:101F2000A36813438B60236813F0010F00F0E8806F
:101F30006368022B04D965484FF4277100F096FFBF
:101F40006268012A05D1634B1B6813F4003F0ED170
:101F50001AE1022A05D15F4B1B6813F0007F06D1FE
:101F600014E15C4B1B6813F0020F00F0118159491A
:101F70008B6823F0030313438B60FEF789FA054651
:101F80006368012B0FD107E0FEF782FA401B41F294
:101F90008833984200F2FE804E4B9B6803F00C039E
:101FA000042BF1D1ACE0022B17D107E0FEF770FA59
:101FB000401B41F28833984200F2EE80454B9B680B
:101FC00003F00C03082BF1D19AE0FEF761FA401BF5
:101FD00041F28833984200F2E1803E4B9B6813F057
:101FE0000C0FF2D18CE0236813F0020F1DD0A36810
:101FF000A3B1802B12D0902B10D0A02B0ED0B02BE1
:102000000CD0C02B0AD0D02B08D0E02B06D0F02B60
:1020100004D02E484FF4397100F028FF2D498B6809
:1020200023F0F002A36813438B60236813F0010FC1
:102030005ED06368022B04D9244840F2EB2100F003
:1020400015FF6268012A05D1224B1B6813F4003F7B
:102050000ED1A5E0022A05D11E4B1B6813F0007FAC
:1020600006D19FE01B4B1B6813F0020F00F09C8011
:1020700018498B6823F0030313438B60FEF708FABB
:1020800006466368012B0FD107E0FEF701FA801BBB
:1020900041F28833984200F289800E4B9B6803F02E
:1020A0000C03042BF1D123E0022B1CD106E0FEF738
:1020B000EFF9801B41F28833984279D8054B9B6831
:1020C00003F00C03082BF2D112E000BF94EB0008E0
:1020D000003C024000380240FEF7DAF9801B41F272
:1020E0008833984266D8354B9B6813F00C0FF3D1B8
:1020F000EAB2334B1A701B6803F00F03AB425BD19B
:10210000236813F0040F19D0E36883B1B3F5805F3F
:102110000DD0B3F5A05F0AD0B3F5C05F07D0B3F51B
:10212000E05F04D0274840F23B3100F09FFE234996
:102130008B6823F4E052E36813438B60236813F049
:10214000080F1AD0236983B1B3F5805F0DD0B3F5C2
:10215000A05F0AD0B3F5C05F07D0B3F5E05F04D04D
:10216000184840F2423100F081FE144A936823F48B
:102170006043216943EAC10393600F20FEF752F9DF
:10218000002070BD012070BD012070BD012070BD18
:10219000012070BD032070BD032070BD032070BD01
:1021A000012070BD012070BD012070BD032070BDF5
:1021B000032070BD032070BD012070BD00380240B7
:1021C000003C024094EB0008224B9B6803F00C0398
:1021D000042B3DD0082B01D01F4870471D4B586879
:1021E00000F03F005B6813F4800F10D01B4BB3FB73
:1021F000F0F3184A506847F6C072104092FAA2F203
:10220000B2FA82F2D2B2D04000FB03F30FE0124BDD
:10221000B3FBF0F30F4A506847F6C072104092FAD1
:10222000A2F2B2FA82F2D2B2D04000FB03F3094A22
:10223000506800F440304FF4403292FAA2F2B2FA01
:1022400082F2D2B2D04001304000B3FBF0F07047D0
:1022500002487047003802400024F40000127A005F
:1022600008B5FFF7B1FF094B9B6803F0F002F023BC
:1022700093FAA3F3B3FA83F3DBB222FA03F3044A2B
:10228000D35CD840034B186008BD00BF0038024043
:1022900084EB00080C00002008B5FFF7E1FF084BB5
:1022A0009B6803F4E0524FF4E05393FAA3F3B3FABC
:1022B00083F3DBB222FA03F3024AD35CD84008BDB1
:1022C0000038024084EB000808B5FFF7C9FF084B4F
:1022D0009B6803F460424FF4604393FAA3F3B3FAAC
:1022E00083F3DBB222FA03F3024AD35CD84008BD81
:1022F0000038024084EB000890F83930DBB2122B32
:1023000001D0322B2AD18368B3F5805F0FD1036AE5
:1023100002681B88C3F30803536003691BB9036A8F
:102320000233036209E0036A0133036205E00268D5
:10233000036A591C01621B785360C38C013B9BB23A
:10234000C3846BB90268D36823F08003D36002684A
:10235000D36843F04003D3600020704702207047E9
:10236000002070472DE9F04104464268944B9A42A0
:1023700004D9944840F2447100F078FDE3683BB121
:10238000B3F5005F04D08F4840F2457100F06EFD58
:10239000236953B1B3F5806F07D0B3F5C06F04D094
:1023A000884840F2467100F061FD63694FF6F372B0
:1023B000134200D123B9834840F2477100F056FD23
:1023C0002268136923F44053E1680B4313612068CA
:1023D000C36823F4164323F00C03A1682269114358
:1023E00062691143E2690A431343C3602268536977
:1023F00023F44073A1690B435361E369B3F5004FC4
:1024000070D1256803F1804303F510439D4203D04A
:1024100003F580639D4232D1FFF756FF00EB800049
:1024200000EB800063685B00B0FBF3F3664FA7FB33
:1024300003235B091E01FFF747FF00EB800000EB61
:10244000800063685B00B0FBF3F8FFF73DFF00EB33
:10245000800000EB800063685B00B0FBF3F3A7FB38
:1024600003235B09642202FB13831B013233A7FBA6
:102470000323C3F343133343AB60BDE8F081FFF79D
:102480000BFF00EB800000EB800063685B00B0FB9B
:10249000F3F34D4FA7FB03235B091E01FFF7FCFE7F
:1024A00000EB800000EB800063685B00B0FBF3F89A
:1024B000FFF7F2FE00EB800000EB800063685B003A
:1024C000B0FBF3F3A7FB03235B09642202FB138336
:1024D0001B013233A7FB0323C3F343133343AB6026
:1024E000BDE8F0812568394B9D4203D003F5806338
:1024F0009D4232D1FFF7E8FE00EB800000EB800048
:1025000063689B00B0FBF3F32F4FA7FB03235B092A
:102510001E01FFF7D9FE00EB800000EB800063682E
:102520009B00B0FBF3F8FFF7CFFE00EB800000EB61
:10253000800063689B00B0FBF3F3A7FB03235B09F8
:10254000642202FB13831B013233A7FB0323C3F373
:1025500043133343AB60BDE8F081FFF79DFE00EB12
:10256000800000EB800063689B00B0FBF3F3164F24
:10257000A7FB03235B091E01FFF78EFE00EB800023
:1025800000EB800063689B00B0FBF3F8FFF784FE6C
:1025900000EB800000EB800063689B00B0FBF3F36E
:1025A000A7FB03235A09642303FB12831B01323365
:1025B000A7FB0323C3F343133343AB60BDE8F081B0
:1025C000A037A000C4EB00081F85EB5100100140AC
:1025D000002800F0818010B5044683691BB30368AE
:1025E0003E4A93420FD0A2F54C4293420BD002F5E3
:1025F0008062934207D002F54C42934203D03848A0
:10260000FC2100F033FCA36953B3B3F5807F27D0DE
:10261000B3F5007F24D0B3F5407F21D03048FD21B1
:1026200000F024FC1CE003682C4A934218D0A2F569
:102630004C42934214D002F58062934210D002F5CE
:10264000806293420CD002F58062934208D002F57A
:102650004442934204D0224840F2011100F006FCAB
:10266000A3683BB1B3F5805F04D01D4840F203116D
:1026700000F0FCFBE3693BB1B3F5004F04D0184810
:102680004FF4827100F0F2FB94F8393013F0FF0F31
:1026900002D120460BF08CFB022384F839302268EB
:1026A000D36823F40053D3602046FFF75BFE226813
:1026B000136923F4904313612268536923F02A03BA
:1026C00053612268D36843F40053D3600020E06371
:1026D000012384F8393010BD0120704700100140FB
:1026E000C4EB000890F83930DBB2012B01D0222B6B
:1026F0002FD100292FD0002A2FD090F83830012B6D
:102700002DD0012380F8383001628284C2840023F6
:10271000C36390F83930DBB2222B03D1322380F827
:10272000393002E0122380F839300268D36843F46C
:102730008073D3600268536943F00103536100233F
:1027400080F838300168CA6842F08002CA601846D2
:102750007047022070470120704701207047022017
:10276000704700BF90F83930DBB2012B01D0122B3B
:102770002FD100292FD0002A2FD090F83830012BEC
:102780002DD0012380F8383081628285C2850023F4
:10279000C36390F83930DBB2122B03D1322380F8B7
:1027A000393002E0222380F839300268D36843F4DC
:1027B0008073D3600268536943F0010353610023BF
:1027C00080F838300168CA6842F02002CA601846B2
:1027D0007047022070470120704701207047022097
:1027E000704700BF08B50268D36823F04003D36088
:1027F00090F83930DBB2322B03D1222380F8393004
:102800000CE00268D36823F48073D36002685369D4
:1028100023F001035361012380F8393009F068F98E
:10282000002008BD08B590F83930DBB2222B01D06A
:10283000322B4CD18368B3F5805F13D1836A026970
:1028400042B902685268C2F308021A80836A0233EE
:10285000836218E002685268D2B21A80836A013338
:10286000836210E0036933B9836A5A1C826202688A
:1028700052681A7007E0826A531C836203685B68BF
:1028800003F07F031370C38D013B9BB2C38503BB71
:102890000268D36823F02003D36090F83930DBB2AC
:1028A000322B03D1122380F839300CE00268D36850
:1028B00023F48073D3600268536923F001035361EA
:1028C000012380F8393009F035F9002008BD0220D5
:1028D00008BD002008BD00BF10B584B004460368E1
:1028E0001968DA6802F4807211F0010F09D042B160
:1028F0001A6800925A680092009AC26B42F0010274
:10290000C26319685A6902F0010211F0020F09D07E
:1029100042B11A6801925A680192019AE26B42F040
:102920000402E26319685A6902F0010211F0040F0F
:1029300009D042B11A6802925A680292029AE26B76
:1029400042F00202E26319685A6902F0010211F0D2
:10295000080F09D042B11A6803925A680392039A89
:10296000E26B42F00802E2631A68DB6803F02003BE
:1029700012F0200F03D013B12046FFF753FF236856
:102980001A68DB6803F0800312F0800F03D013B1E4
:102990002046FFF7B1FC23681A68DB6803F04003A8
:1029A00012F0400F03D013B12046FFF71BFFE36B7B
:1029B0002BB1012384F83930204609F09FF804B088
:1029C00010BD00BF836843F001038360002070479F
:1029D000836823F00103836000207047490141F0C0
:1029E00020010161054B01E0013B05D0026912F0B5
:1029F000200FF9D10020704703207047400D0300DD
:102A000010230361054B01E0013B05D0026912F080
:102A1000100FF9D10020704703207047400D0300CC
:102A2000033292100FD030B40C46002300F58055CD
:102A30002D6844F8045B01339A42F7D101EB82011F
:102A4000084630BC70470846704700BF436980693C
:102A500018407047406900F00100704710B400F55D
:102A60008064D0F8003423F00303C0F80034D0F8B9
:102A7000003401F003021343C0F80034012903D1EC
:102A80004BF68033636004E0022902D141F2707397
:102A9000636000205DF8044B704700BF82B0D0F83F
:102AA00040340193019B23F02E030193019B13F407
:102AB000805F08D1012906D1019B43F48053C0F8FF
:102AC0004034019B09E0019B13F4805F05D021B9DC
:102AD000019B23F48053C0F84034002002B07047BB
:102AE00080B483B000AF78607B6803F580635B6976
:102AF0009BB218460C37BD465DF8047B704700BF9B
:102B000080B485B000AF78600B46FB700023FB609B
:102B1000FB785A017B68134403F5A0631B68FB78BC
:102B20005A017B68134403F5A0631B6803F4002378
:102B3000002B6ED0FB785A017B68134403F5A06329
:102B40001946FB785A017B68134403F5A0631B68A0
:102B500043F080430B607B68DB6A9BB2002B45D15E
:102B6000FB785A017B68134403F5A0631946FB7890
:102B70005A017B68134403F5A0631B6823F00043EC
:102B80000B60FB785A017B68134403F5A063194678
:102B9000FB785A017B68134403F5A0631B6843F07C
:102BA00000430B60FB785A017B68134403F5A06374
:102BB0001946FB785A017B68134403F5A0631B6830
:102BC00023F400430B60FB680133FB60FB68B3F543
:102BD0007A7F01D900BF1BE0FB785A017B68134460
:102BE00003F5A0631B68002BEDDB11E0FB785A01B5
:102BF0007B68134403F5A0631946FB785A017B6890
:102C0000134403F5A0631B6843F000430B606FE0BF
:102C10006EE0FB785A017B68134403F5A063194604
:102C2000FB785A017B68134403F5A0631B6843F0EB
:102C300080430B607B6803F580631B699BB2002BAC
:102C400045D1FB785A017B68134403F5A06319460C
:102C5000FB785A017B68134403F5A0631B6823F0DB
:102C600000430B60FB785A017B68134403F5A063B3
:102C70001946FB785A017B68134403F5A0631B686F
:102C800043F000430B60FB785A017B68134403F563
:102C9000A0631946FB785A017B68134403F5A063CF
:102CA0001B6823F400430B60FB680133FB60FB6887
:102CB000B3F57A7F01D900BF1AE0FB785A017B682F
:102CC000134403F5A0631B68002BEDDB10E0FB78D9
:102CD0005A017B68134403F5A0631946FB785A0137
:102CE0007B68134403F5A0631B6843F000430B604B
:102CF000002318461437BD465DF8047B704700BFBB
:102D000080B586B000AF786000233B617868FFF73C
:102D10005FFE78681021FFF761FE7868FFF770FEAC
:102D20000023FB751FE0FB7D5A017B68134403F50C
:102D3000A0631B68FB60FB6843F08043FB60FB689B
:102D400023F00043FB60FB6823F40043FB60FB7D42
:102D50005A017B68134403F5A0631A46FB681360AD
:102D6000FB7D0133FB75FB7D0F2BDCD90023FB754D
:102D700030E0FB7D5A017B68134403F5A0631B68B8
:102D8000FB60FB6843F08043FB60FB6843F000435B
:102D9000FB60FB6823F40043FB60FB7D5A017B680A
:102DA000134403F5A0631A46FB6813603B690133C3
:102DB0003B613B69B3F57A7F00D908E0FB7D5A019E
:102DC0007B68134403F5A0631B68002BEEDBFB7DDF
:102DD0000133FB75FB7D0F2BCBD97B6803F580633B
:102DE0001A464FF0FF3353617B684FF0FF325A6150
:102DF0007868FFF7E7FD002318461837BD4680BD09
:102E0000FEE700BF08B5034800F056F80120FFF7C1
:102E1000F7FF00BFF4EB000808B50D4B1B6813B9B2
:102E20000C4A0B4B1A600A4B1A68C31C23F00303AD
:102E3000134409498B4206D90BF000FA0C230360B6
:102E40004FF0FF3008BD02490B60104608BD00BFBF
:102E5000A00000205C44002000FC0120012303604E
:102E6000014B0B60704700BF0400002008B503460B
:102E70000A460348194600F005F8FFF7C3FF00BFF4
:102E800048EC00080FB400B583B004AB53F8042B32
:102E90000193084880210BF0DFFA011E03DD05488D
:102EA00000F04CF80146084603B05DF804EB04B0AE
:102EB000704700BFA800002010B504460BF09AFA36
:102EC0000146204600F03AF80248012100F036F8A9
:102ED00010BD00BF38ED00082DE9F04385B0044671
:102EE0000F46435C13BB042528462146ABBE04466F
:102EF0001FE03546102E28BF1025002306E014F8E9
:102F0000011B04AA1A4402F8101C0133AB42F6D389
:102F100004AA1344002203F8102CE9464FF00408D9
:102F200040464946ABBE8046761B00E00E46002E6A
:102F3000DFD1384605B0BDE8F08300BF08B5FFF724
:102F4000CBFF08BD08B500F093F8044AD2F88830EA
:102F500043F47003C2F8883008BD00BF00ED00E004
:102F6000F8B504460D4617461E462648FFF78AFF69
:102F700025482168FFF786FF24486168FFF782FF34
:102F80002348A168FFF77EFF2248E168FFF77AFF38
:102F900021482169FFF776FF20486169FFF772FF3A
:102FA0001F48A169FFF76EFF1E48E169FFF76AFF3E
:102FB0001D48FFF767FF1D482946FFF763FF1C4CBC
:102FC000E16A1C48FFF75EFF216B1B48FFF75AFFC1
:102FD000E16B1A48FFF756FF15F0800F03D0184831
:102FE0003946FFF74FFF15F4004F03D0154831461F
:102FF000FFF748FF1448FFF745FF14480699FFF70D
:1030000041FFF8BDA0EC0008B0EC0008C0EC0008DF
:10301000D0EC0008E0EC0008F0EC000800ED00083F
:1030200010ED000820ED000830ED00083CED000830
:1030300000ED00E04CED00085CED00086CED0008D0
:103040007CED00088CED00089CED0008A4ED000864
:1030500083691A888A4207D10268033A012A05D88F
:1030600002338361012070470020704700207047C1
:103070000F49D1F8883043F47003C1F888300D4B04
:103080001A6842F001021A60002098601A6822F063
:10309000847222F480321A60074A5A601A6822F455
:1030A00080221A60D8604FF000638B60704700BFC9
:1030B00000ED00E0003802401030002408B5D0F8E0
:1030C0008C0200F02BF808BD08B5D0F88C0200F097
:1030D0002FF808BD08B5D0F88C0200F047F808BDFD
:1030E000704700BF08B5D0F89003FEF72DF9002017
:1030F00008BD00BF08B5D0F89003FEF73BF90020EB
:1031000008BD00BF08B50378DBB20A2B04D1D0F8A4
:1031100044330BB19B69984708BD00BF08B5D0F890
:1031200088330133C0F88833FFF7ECFF08BD00BFD8
:1031300010B50446037813F0FF0F08D1012380F87F
:103140001E32D0F8943343B10421984705E0037848
:10315000DBB2012B01D102230370D4F898030121C3
:10316000002209F017FB002010BD00BF10B5044677
:10317000FFF7C0FF2046217900F01AF82046617958
:1031800000F016F8002384F81E32D4F8943313B1FB
:103190002046052198472046FFF7A4FF032323700C
:1031A000D4F898030121002209F0F4FA002010BDA0
:1031B0000A2906D8D23100EB81014B68C3F30E0314
:1031C0004B600020704700BF2DE9F04784B0D0F875
:1031D000F0607608731E062B00F20F820546174634
:1031E000884603A804220BF047F802A808F104015E
:1031F00004220BF041F801A808F1080104220BF0A9
:103200003BF8684608F10C0104220BF035F8039BEB
:1032100003F0FF2E03F0FF131B0243EA1E2E029B56
:1032200003F0FF2103F0FF131B0243EA1121019B6E
:1032300003F0FF2203F0FF131B0243EA1222009B5C
:1032400003F0FF2003F0FF131B0243EA102328685A
:1032500080EA3E400390686880EA31410291A968A3
:1032600081EA32420192EA6882EA33430093DDF850
:103270000C804FEA1862E24B53F82240DDF808C098
:10328000CCF3074202F5807253F822205440019A91
:10329000C2F3072101F5007153F821104C40DDF80D
:1032A00000E05FFA8EF101F5407153F821104C40B7
:1032B00029694C404FEA1C6153F82100C2F30741D1
:1032C00001F5807153F821104840CEF3072101F534
:1032D000007153F8211048405FFA88F101F5407100
:1032E00053F82110484069694840110E53F8219065
:1032F000CEF3074A0AF5807A53F82A1089EA0109C1
:10330000C8F3072101F5007153F8211089EA01097A
:103310005FFA8CF101F5407153F8211089EA010937
:10332000A96989EA01014FEA1E6E53F82E90C8F38D
:10333000074808F5807853F828E089EA0E0ECCF3A8
:10334000072C0CF5007C53F82CC08EEA0C0ED2B280
:1033500002F5407253F822308EEA030EEB698EEAD2
:10336000030E2035013E78D0220EA54B53F822C023
:10337000C0F3074808F5807853F828208CEA020C3F
:10338000C1F3072202F5007253F822208CEA020CE6
:103390005FFA8EF202F5407253F822208CEA020C9A
:1033A0002A688CEA02020392020E53F822C0C1F38B
:1033B000074808F5807853F828208CEA020CCEF3F1
:1033C000072202F5007253F822208CEA020CE2B2C6
:1033D00002F5407253F822208CEA020C6A688CEAEB
:1033E000020202920A0E53F822C0CEF3074808F5F3
:1033F000807853F828208CEA020CC4F3072202F5E7
:10340000007253F822208CEA020CC2B202F540721C
:1034100053F822208CEA020CAA688CEA020201927C
:103420004FEA1E6E53F82EE0C4F3074404F580748F
:1034300053F824208EEA0202C0F3072000F5007042
:1034400053F820005040C9B201F5407153F82120D3
:103450004240EB685340009309E7220E684B02F5A7
:10346000806253F8226006F07F46C0F3074202F5FF
:10347000806253F8222002F47F025640C1F30722F3
:1034800002F5806253F8222002F47F4272405FFA14
:103490008EF606F5806613F8266056402A68564078
:1034A000020E02F5806253F8222002F07F4CC1F335
:1034B000074202F5806253F8222002F47F028CEA70
:1034C000020CCEF3072202F5806253F8222002F4A8
:1034D0007F428CEA02025FFA84FC0CF5806C13F8E0
:1034E0002CC082EA0C0C6A688CEA020C0A0E02F507
:1034F000806253F8222002F07F48CEF3074202F5A3
:10350000806253F8222002F47F0288EA0208C4F3A2
:10351000072202F5806253F8222002F47F4288EAF3
:1035200002025FFA80F808F5806813F8288082EAC2
:103530000808AA6888EA02084FEA1E6E0EF5806E37
:1035400053F82E2002F07F4EC4F3074404F5806444
:1035500053F8242002F47F028EEA0204C0F307200D
:1035600000F5806053F8202002F47F426240C9B227
:1035700001F5806113F821305A40EB68534006F0A2
:10358000FF2206F0FF16360246EA12224FEA3242C6
:1035900003920CF0FF210CF0FF12120242EA1122FA
:1035A0004FEA3242029208F0FF2108F0FF121202A5
:1035B00042EA11224FEA3242019203F0FF2203F065
:1035C000FF131B0243EA12234FEA334300933846AA
:1035D00003A904220AF050FE381D02A904220AF0B1
:1035E0004BFE07F1080001A904220AF045FE07F18D
:1035F0000C00694604220AF03FFE04B0BDE8F087E3
:10360000100201082DE9F04784B0D0F8F060760888
:10361000731E062B00F20E8205461746884603A845
:1036200004220AF029FE02A808F1040104220AF08B
:1036300023FE01A808F1080104220AF01DFE6846D5
:1036400008F10C0104220AF017FE039B03F0FF2E81
:1036500003F0FF131B0243EA1E2E029B03F0FF211F
:1036600003F0FF131B0243EA1121019B03F0FF2229
:1036700003F0FF131B0243EA1222009B03F0FF201A
:1036800003F0FF131B0243EA1023286880EA3E4040
:103690000390686880EA31410291A96881EA324268
:1036A0000192EA6882EA33430093039A110EE34BD6
:1036B00053F82100DDF800E0CEF3074404F58074F0
:1036C00053F824104140DDF80480C8F3072000F5CA
:1036D000007053F820406140DDF808C05FFA8CF0BC
:1036E00000F5407053F820004840296941404FEAF6
:1036F0001C6053F82040C2F3074909F5807953F85C
:1037000029004440CEF3072000F5007053F8200054
:1037100060405FFA88F404F5407453F82440444054
:10372000686960404FEA186453F82490CCF3074A64
:103730000AF5807A53F82A4089EA0409C2F307247B
:1037400004F5007453F8244089EA04095FFA8EF402
:1037500004F5407453F8244089EA0409AC6989EA05
:1037600004044FEA1E6E53F82E90C8F3074808F57C
:10377000807853F828E089EA0E0ECCF3072C0CF57C
:10378000007C53F82CC08EEA0C0ED2B202F54072C7
:1037900053F822308EEA030EEB698EEA030E2035D1
:1037A000013E78D00A0EA54B53F822C0CEF307484D
:1037B00008F5807853F828208CEA020CC4F307221D
:1037C00002F5007253F822208CEA020CC2B202F514
:1037D000407253F822208CEA020C2A688CEA02021A
:1037E0000392020E53F822C0C1F3074808F580780F
:1037F00053F828208CEA020CCEF3072202F500725F
:1038000053F822208CEA020CE2B202F5407253F81F
:1038100022208CEA020C6A688CEA02020292220ED2
:1038200053F822C0C0F3074808F5807853F82820E1
:103830008CEA020CC1F3072202F5007253F8222031
:103840008CEA020C5FFA8EF202F5407253F82220E5
:103850008CEA020CAA688CEA020201924FEA1E6E00
:1038600053F82EE0C4F3074404F5807453F8242081
:103870008EEA0202C0F3072000F5007053F8200022
:103880005040C9B201F5407153F821204240EB6825
:103890005340009309E70A0E684B02F5806253F823
:1038A000226006F07F46CEF3074202F5806253F8AD
:1038B000222002F47F025640C4F3072202F5806200
:1038C00053F8222002F47F427240C6B206F58066A9
:1038D00013F8266056402A685640020E02F58062B0
:1038E00053F8222002F07F4CC1F3074202F58062B8
:1038F00053F8222002F47F028CEA020CCEF3072256
:1039000002F5806253F8222002F47F428CEA020220
:103910005FFA84FC0CF5806C13F82CC082EA0C0C66
:103920006A688CEA020C220E02F5806253F82220AB
:1039300002F07F48C0F3074202F5806253F822206C
:1039400002F47F0288EA0208C1F3072202F58062CE
:1039500053F8222002F47F4288EA02025FFA8EF8CE
:1039600008F5806813F8288082EA0808AA6888EABF
:1039700002084FEA1E6E0EF5806E53F82E2002F0FC
:103980007F4EC4F3074404F5806453F8242002F406
:103990007F028EEA0204C0F3072000F5806053F82E
:1039A000202002F47F426240C9B201F5806113F821
:1039B00021305A40EB68534006F0FF2206F0FF1614
:1039C000360246EA12224FEA324203920CF0FF21FD
:1039D0000CF0FF12120242EA11224FEA3242029226
:1039E00008F0FF2108F0FF12120242EA11224FEA0A
:1039F0003242019203F0FF2203F0FF131B0243EA5D
:103A000012234FEA33430093384603A904220AF0F5
:103A100033FC381D02A904220AF02EFC07F108002D
:103A200001A904220AF028FC07F10C0069460422CF
:103A30000AF022FC04B0BDE8F08700BF10EE0008D9
:103A400070B108B529B1F43010220AF015FC00203D
:103A500008BDF430002110220AF019FC002008BD36
:103A60006FF0AC00704700BF2DE9F04106461746E5
:103A7000984604469508AB1DC0F8F0300AF0FCFBF0
:103A800000220DE054F8223003F0FF2103F0FF1371
:103A90001B0243EA11234FEA334344F82230013238
:103AA0009542EFD8182F3CD0202F77D0102F40F020
:103AB000C88133460025D868C0F30742854F02F518
:103AC000806257F8221001F07F411A685140C0F31C
:103AD000072202F5806257F8222002F47F0251404B
:103AE000C2B202F5806257F8222002F47F424A40B7
:103AF000010E01F5806117F821104A40764951F80E
:103B000025104A401A6159684A405A6199684A40EA
:103B10009A614240DA6101350A2D00F0A580103328
:103B2000C9E7334600255F69C7F30741694A01F5D4
:103B3000806152F8210000F07F4019684840C7F3C7
:103B4000072101F5806152F8211001F47F014840FE
:103B5000F9B201F5806152F8211001F47F41414032
:103B6000380E00F5806012F8202051405A4A52F871
:103B70002520514099615A685140D9619A684A405C
:103B80001A62D9684A405A620135082D6CD0196909
:103B90004A409A627A40DA621833C4E7334600201A
:103BA000DD69C5F307424B4F02F5806257F82210DA
:103BB00001F07F411A685140C5F3072202F5806287
:103BC00057F8222002F47F024A40E9B201F58061F1
:103BD00057F8211001F47F4151402A0E02F580620E
:103BE00017F8222051403C4A52F8202051401962D7
:103BF0005A68514059629A684A409A62D9684A4064
:103C0000DA62013007282FD04FEA126E0EF5806E6F
:103C100057F82E1001F07F4E196981EA0E0CC2F39D
:103C2000074101F5806157F8211001F47F0E8CEAFD
:103C30000E0EC2F3072101F5806157F8211001F43F
:103C40007F418EEA0101D2B202F5806217F822208C
:103C50004A401A635F697A405A6399694A409A6395
:103C60006A40DA6320339BE7069B012B40F0E38038
:103C7000D6F8F0309B00002227E054F8221054F8C8
:103C8000230044F8220044F82310501C54F82070FC
:103C9000591C54F8215044F8205044F82170901CCD
:103CA00054F82070991C54F8215044F8205044F8DE
:103CB0002170D01C54F82070D91C54F8215044F8BD
:103CC000205044F821700432043B9A42D5D301209D
:103CD000ACE000BF10020108E8ED000854F8101F26
:103CE0000B0E5A4A03F5806312F82350584B53F8D1
:103CF0002570C1F3074E0EF5806E12F82EE00EF51A
:103D0000807E53F82E506F40C1F3072505F580657E
:103D100012F8255005F5007553F825507D40C9B2BD
:103D200001F5806112F8211001F5407153F821105E
:103D30006940216061680D0E05F5806512F8255017
:103D400053F82570C1F3074E0EF5806E12F82EE081
:103D50000EF5807E53F82E506F40C1F3072505F510
:103D6000806512F8255005F5007553F825507D4003
:103D7000C9B201F5806112F8211001F5407153F8C4
:103D8000211069406160A1680D0E05F5806512F88B
:103D9000255053F82570C1F3074E0EF5806E12F8CA
:103DA0002EE00EF5807E53F82E506F40C1F30725AC
:103DB00005F5806512F8255005F5007553F8255076
:103DC0007D40C9B201F5806112F8211001F5407102
:103DD00053F821106940A160E1680D0E05F580657A
:103DE00012F8255053F82570C1F3074E0EF5806E7A
:103DF00012F82EE00EF5807E53F82E506F40C1F37E
:103E0000072505F5806512F8255005F5007553F86E
:103E100025507D40C9B201F5806112F8212002F5DC
:103E2000407253F822306B40E3600130D6F8F03036
:103E300083423FF653AF30464146FFF701FEBDE8EF
:103E4000F0816FF0AC00BDE8F08100BF1002010806
:103E500010EE000810B582B0102A03D0182A01D045
:103E6000202A04D1049C0094FFF7FEFD01E06FF0CE
:103E7000AC0002B010BD00BF2DE9F04107460E4670
:103E800015461B0929E007F1F40444EA050313F081
:103E9000030F0AD0002311E055F8232054F8231013
:103EA0004A4044F82320013300E00023032BF3D9D8
:103EB00006E0E95CE25C4A40E25401330F2BF8D99A
:103EC000384621462246FFF77FF930462146102228
:103ED0000AF0D2F910361035434603F1FF38002BB3
:103EE000D1D10020BDE8F0812DE9F04107460C4614
:103EF00016461B092FE007F5827528463146102229
:103F00000AF0BAF9384629462246FFF77BFB07F14B
:103F1000F40044EA000313F0030F0AD0002311E079
:103F200050F8232054F823104A4044F8232001334A
:103F300000E00023032BF3D906E0C15CE25C4A40B9
:103F4000E25401330F2BF8D9294610220AF094F9D4
:103F500010341036434603F1FF38002BCBD100203C
:103F6000BDE8F081F0B5012303700023437002E047
:103F7000C418A3700133FF2BFAD900231C461D4639
:103F800012E000EB050E9EF802700E5D3E443344D5
:103F9000DBB2C61896F802C08EF802C0B7700134C2
:103FA000944200D300240135FF2DEAD9F0BD00BFB3
:103FB000F0B50578447813E092F800C0861C775D70
:103FC0003C44E4B2335D735537550135EDB23B44A3
:103FD000DBB2F35C8CEA03030B70734601320131F0
:103FE00003F1FF3E002BE7D105704470F0BD00BF28
:103FF0002DE9F04307680E68002589E04FEA051EA9
:1040000052F80E3083EA361303F03F0C444C0CF5A3
:10401000C07C54F82C80C3F3052909F5807954F845
:1040200029C088EA0C08C3F3054C0CF1800C54F845
:104030002CC088EA0C0CC3F3056354F823308CEAD7
:1040400003035F4002EB0E035B68734003F03F0C19
:104050000CF5E07C54F82C80C3F3052909F5A07910
:1040600054F829C088EA0C08C3F3054C0CF1C00CC5
:1040700054F82CC088EA0C0CC3F30563403354F8A1
:1040800023308CEA03035F409644DEF8083083EA6D
:10409000371303F03F0C0CF5C07C54F82C80C3F3AD
:1040A000052909F5807954F829C088EA0C08C3F37A
:1040B000054C0CF1800C54F82CC088EA0C0CC3F3AE
:1040C000056354F823308CEA03035E40DEF80C30BD
:1040D0007B4003F03F0E0EF5E07E54F82EC0C3F394
:1040E000052808F5A07854F828E08CEA0E0CC3F3F4
:1040F000054E0EF1C00E54F82EE08CEA0E0EC3F3FE
:104100000563403354F823308EEA03035E400135E3
:10411000072D7FF673AF07600E60BDE8F08300BF28
:1041200098160108F0B59FB00E461546002210E023
:10413000494B9B5C013B03F00704DB10C15C474B20
:1041400053F82430194214BF012300230DF8023024
:104150000132372AECDD00245BE01CA80021082294
:104160000AF095F8002212E00EAB99183C4B1B5D4B
:1041700013441B2A01DC1C2000E03820834200DBB2
:104180001C3B1EA8034413F8783C0B700132372AFD
:10419000EADD002219E0334B9B5C1EA90B4413F8A7
:1041A000413C8BB1304B83FB0213A3EBE273194606
:1041B00003EB43035B00D31A1CA8284F57F8237066
:1041C000435C43EAA703435401322F2AE3DD9DF801
:1041D00070209DF872301B0443EA02639DF874203E
:1041E00043EA02239DF87620134345F8343005EB6B
:1041F000C4019DF871209DF873301B0443EA0263EB
:104200009DF8752043EA02239DF8772013434B6005
:1042100001340F2CA1DD012E1AD116E055F8231020
:10422000C3F11E0255F8220045F8230045F822107C
:10423000591C55F82100C3F11F0255F8224045F8DA
:10424000214045F82200023300E000230F2BE5DD7A
:1042500000201FB0F0BD00BF10160108781601083D
:10426000981E010848160108ABAAAA2A70B582B0A8
:1042700005460E46144601A8042209F0FDFF6846D3
:10428000311D042209F0F8FF019B03F0FF2003F029
:10429000FF131B0243EA10204FEA3040009901F05F
:1042A000FF2201F0FF11090241EA12224FEA3232E5
:1042B00082EA000303F0F033584053404FEA33538F
:1042C00083EA0001090C0904484059404FEAB14112
:1042D00081EA000202F0333250404A404FEAB21203
:1042E00082EA000303F0FF1380EA030153404FEA20
:1042F000F35383EA010202F0AA3251404FEAF1710E
:1043000001915340009301A869462A46FFF770FEC9
:10431000684601A905F18002FFF76AFE01A8694617
:1043200005F58072FFF764FE00984FEA700001996E
:1043300080EA010202F0AA3250404A404FEA72225B
:1043400082EA000303F0FF13584053404FEAB3637F
:1043500083EA000101F03331484059404FEAB1315E
:1043600081EA0002120C120450404A404FEA3232F5
:1043700082EA000303F0F03380EA030153404FEA7E
:10438000331303F0FF2203F0FF131B0243EA12234F
:104390004FEA3343019301F0FF2301F0FF110902BB
:1043A00041EA13214FEA3141009120466946042237
:1043B00009F062FF201D01A9042209F05DFF02B08F
:1043C00070BD00BF2DE9F04107460E461546DB08DB
:1043D00029E007F5C07444EA050313F0030F0AD07F
:1043E000002311E055F8232054F823104A4044F8E4
:1043F0002320013300E00023012BF3D906E0E95C20
:10440000E25C4A40E2540133072BF8D93846214692
:104410002246FFF72BFF30462146082209F02CFFE9
:1044200008360835434603F1FF38002BD1D1002070
:10443000BDE8F0812DE9F04107460C461646DB0841
:104440002FE007F5C47528463146082209F014FF0D
:10445000384629462246FFF709FF07F5C07044EAAF
:10446000000313F0030F0AD0002311E050F82320BB
:1044700054F823104A4044F82320013300E000237D
:10448000012BF3D906E0C15CE25C4A40E2540133FF
:10449000072BF8D92946082209F0EEFE0834083621
:1044A000434603F1FF38002BCBD10020BDE8F0815B
:1044B00008B5034630B129B100F5C070082209F0F3
:1044C000DBFE06E02BB103F5C0700021082209F0E5
:1044D000DEFE002008BD00BFF8B505460E461746B3
:1044E0001C460BB9002000E01020304421462A462B
:1044F000FFF718FEC0B906F10800B4FA84F14909C3
:1045000005F18002FFF70EFE78B9012C00D01020D3
:104510003044214605F58072FFF704FE30B9284685
:104520003946FFF7C5FFF8BDF8BDF8BDF8BD00BFBF
:1045300010B5044690F81032052B2AD8DFE803F0B6
:10454000030A1129211904F1D001402200F066FD6F
:1045500000231FE004F1D001402201F0C5FD00233B
:1045600018E004F1D001402202F056F8034688B169
:1045700013E004F1D001802206F0CAFF034648B1DF
:104580000BE004F1D001802206F04AFE034608B198
:1045900003E00023012284F81122184610BD00BF59
:1045A00008B5002380F8113280F81012022905D9CD
:1045B000052903D0042901D0072916D1052917D8C8
:1045C000DFE801F003070A16100D00F011FD0020CE
:1045D00008BD01F06DFD08BD01F0F4FF08BD06F057
:1045E00047FF08BD06F0CCFD08BD6FF0AC0008BD6C
:1045F0006FF0AC0008BD00BF2DE9F04105469046C4
:104600001F4600F1D00400F5A876FFF7C9FF002887
:1046100040F0928095F81032052B00F28F80DFE891
:1046200003F003182D8D5E46402F06D820464146E4
:104630003A4609F021FE402567E0284641463A46C1
:1046400000F0ECFC2846214600F014FD4025102720
:104650005BE0402F06D8204641463A4609F00CFE62
:10466000402552E0284641463A4601F03DFD2846A5
:10467000214601F07BFD4025142746E0402F06D857
:10468000204641463A4609F0F7FD40253DE02846E0
:1046900041463A4601F0C0FF002853D12846214642
:1046A00001F0FEFF00284FD1402520272DE0802F6C
:1046B00006D8204641463A4609F0DEFD802524E032
:1046C000284641463A4606F023FF00283ED12846B8
:1046D000214606F07BFFD8BB8025302715E0802FD0
:1046E00006D8204641463A4609F0C6FD80250CE032
:1046F000284641463A4606F093FD58BB28462146D7
:1047000006F0ECFD40BB80254027AF4204D2E01903
:104710000021EA1B09F0BBFD002308E0E25C82F007
:104720005C02F254E25C82F03602E2540133AB42A6
:10473000F4D30020BDE8F081BDE8F0816FF0AC005B
:10474000BDE8F081BDE8F081BDE8F081BDE8F08111
:10475000BDE8F081BDE8F081BDE8F08170B50446A8
:104760000E46154690F8113213B9FFF7E1FE58BB1B
:1047700094F81032052B28D8DFE803F0030A11273C
:104780001F18204631462A4600F048FC002070BD24
:10479000204631462A4601F0A7FC002070BD204685
:1047A00031462A4601F038FF88B970BD20463146AF
:1047B0002A4606F0ADFE58B970BD204631462A465D
:1047C00006F02EFD28B970BD70BD002070BD70BD13
:1047D00070BD70BD70B504460D4690F8113223B916
:1047E000FFF7A6FE002840F08A8094F81032052BCF
:1047F00000F28180DFE803F003192F7F664C04F597
:10480000E8762046314600F035FC204604F5A871D4
:10481000402200F003FC20463146102200F0FEFB4F
:104820002046294600F026FC65E004F5E87620469F
:10483000314601F09BFC204604F5A871402201F0AE
:1048400053FC20463146142201F04EFC20462946F6
:1048500001F08CFC4FE004F5E8762046314601F08B
:104860001FFF00284CD1204604F5A871402201F01A
:10487000D3FE002845D120463146202201F0CCFE4F
:1048800000283FD12046294601F00AFF98B33AE0BC
:1048900004F5E8762046314606F098FEA0BB204697
:1048A00004F5A871802206F033FE70BB2046314625
:1048B000302206F02DFE48BB2046294606F086FE33
:1048C000C8B124E004F5E8762046314606F006FD3E
:1048D000F0B9204604F5A871802206F0A1FCC0B909
:1048E00020463146402206F09BFC98B920462946D6
:1048F00006F0F4FC78B9002084F8110270BD70BD98
:1049000070BD70BD70BD70BD70BD70BD70BD70BD3F
:1049100070BD70BD70BD70BD2DE9F04F83B0056DE9
:10492000466D836D86EA030129405940C36C1944E2
:10493000C3681944DF4B0B4405EB736385EA060239
:104940001A407240816D0A4401690A44DA4F1744E3
:1049500003EB375C83EA050202EA0C026A40324448
:1049600041690A44D54F17440CEBF73E8CEA030229
:1049700002EA0E025A402A4481690A44D04911448D
:104980000EEBB1218EEA0C020A4082EA0C021A44B4
:10499000C3691A44CB4B134401EB736381EA0E07DE
:1049A0001F4087EA0E076744026A1744C64A3A4422
:1049B00003EB325283EA010717404F407744446AC1
:1049C0002744C24C3C4402EBF43C82EA030404EA70
:1049D0000C045C400C44D0F828A05444BC49214449
:1049E0000CEBB1218CEA02040C4054401C44C36A15
:1049F0001C44B84B234401EB736381EA0C041C4054
:104A000084EA0C041444026B1444B34A224403EBBA
:104A1000325283EA010414404C406444D0F834C05C
:104A20006444A4F524444F3C02EBF43482EA0307C7
:104A300027405F400F44816B0F44A849394404EB81
:104A4000B12184EA02070F4057401F44D0F83C8050
:104A50004744A34B3B4401EB736381EA040E0EEA27
:104A6000030E8EEA040E9644026C174696449D4A45
:104A7000724403EB325283EA010E0EEA020E8EEA12
:104A8000010EA644D0F84490CE44974C744402EBF7
:104A9000F43482EA030B0BEA040B8BEA030B8B441E
:104AA000D0F848E0F3449149594404EBB12181EA3C
:104AB000040B0BEA020B8BEA040B9B4403699B4437
:104AC0008B4B5B4401EBF36383EA010B0BEA040BB2
:104AD0008BEA010B9344426A9344864A5A4403EB9F
:104AE000F25282EA030B0BEA010B8BEA030BA3449D
:104AF000846BA344804C5C4402EBB44484EA020B14
:104B00000BEA030B8BEA020B8B44C1688B447B4995
:104B1000594404EB313181EA040B0BEA020B8BEAB6
:104B2000040B9B44036A9B44754B5B4401EBF363AA
:104B300083EA010B0BEA040B8BEA010B9344E34479
:104B4000704A5A4403EBF25282EA030B0BEA010B60
:104B50008BEA030BA344F3446B4C5C4402EBB44478
:104B600084EA020B0BEA030B8BEA020B8B44C1694C
:104B70008B446649594404EB313181EA040B0BEA5A
:104B8000020B8BEA040B9B44036B9B44604B5B441E
:104B900001EBF36383EA010B0BEA040B8BEA010BD5
:104BA0009344CB445B4A5A4403EBF25282EA030B30
:104BB0000BEA010B8BEA030BA3448469A344564C14
:104BC0005C4402EBB44484EA020B0BEA030B8BEA6D
:104BD000020B8B44C16A8B445049594404EB313178
:104BE00081EA040B0BEA020B8BEA040B9B4401974E
:104BF000BB444B4B5B4401EBF36383EA010B0BEAD1
:104C0000040B8BEA010B934442699344454A5A448E
:104C100003EBF25282EA030B0BEA010B8BEA030B64
:104C2000A344D344404C5C4402EBB44484EA020BFA
:104C30000BEA030B8BEA020B8B44C3443B495944F8
:104C400004EB313181EA040B8BEA020B5B44076A07
:104C50003B44A3F5B823A3F2BE6301EB337383EAAD
:104C6000010B8BEA040B5A44C76A3A44DFF8CCB014
:104C7000934403EB7B5282EA030B8BEA010BA344C0
:104C8000846BA3442A4C5C4402EB344484EA020B58
:104C90008BEA030B8B44CB442649594404EB712126
:104CA00081EA040B8BEA020B9B4403699B44224B71
:104CB0005B4445E078A46AD756B7C7E8DB70202488
:104CC000EECEBDC1AF0F7CF52AC68747134630A88C
:104CD000019546FDD8988069AFF7448BBED75C89B3
:104CE0002211906B937198FD8E4379A62108B449E7
:104CF00062251EF640B340C0515A5E26AAC7B6E9E7
:104D00005D102FD65314440281E6A1D8C8FBD3E727
:104D1000E6CDE121D60737C3870DD5F4ED145A450A
:104D200005E9E3A9F8A3EFFCD9026F678A4C2A8D45
:104D300022619D6D0C38E5FD44EABEA481F67187C1
:104D400001EB337383EA010B8BEA040B5A44C76906
:104D50003A44DFF890B2934403EB7B5B8BEA0302A7
:104D60004A4014445444884A22440BEB324282EABB
:104D70000B045C400C4464448449214402EB7121DF
:104D800081EA020484EA0B042344019C2344804CFE
:104D90001C4401EB347484EA010353409B44C36810
:104DA0009B447C4B5B4404EB735383EA040B8BEA18
:104DB000010B5A4487693A44DFF82CB2934403EB61
:104DC0003B4B8BEA030262400A44416A0A4472493F
:104DD00011440BEB712181EA0B025A401444026B1F
:104DE00014446E4A224401EB327282EA010484EADE
:104DF0000B04234443446A4C1C4402EB745484EA7D
:104E000002034B405B447344DFF8E0B19B4404EB86
:104E10003B4B8BEA04035340194443691944614BEB
:104E20000B440BEB732363EA040181EA0B01114489
:104E3000C26811445C4A0A4403EBB26262EA0B01A5
:104E400059400C44A2445949514402EBB15161EA22
:104E500003045440A344D944554C4C4401EB7444DE
:104E600064EA020989EA01099944036A9944514BA9
:104E70004B4404EBF32363EA010989EA04094A4439
:104E800090444D4A424403EBB26262EA040888EA65
:104E900003088844B8444949414402EBB15161EAEE
:104EA000030888EA02084444A444ACF5801CACF62C
:104EB000833C01EB7C4C6CEA02044C401C440369CB
:104EC0001C443F4B23440CEBF32363EA010484EAC4
:104ED0000C041444C26A14443A4A224403EBB262FA
:104EE00062EA0C045C4021448E443749714402EB71
:104EF000B15161EA03045440A444446AA444334CCD
:104F0000644401EB744464EA020E8EEA010E7344B9
:104F1000019F1F442E4B3B4404EBF32363EA01073C
:104F200067403A44C76917442A4A3A4403EBB262DD
:104F300062EA04075F403944876B0F4426493944CD
:104F400002EBB15161EA030757403C4447692744EB
:104F5000224C3C4401EB744464EA02074F403B445A
:104F6000076B3B441E4F1F4404EBF727C36C1A44E6
:104F7000C2643D44056526444665836D19448165D8
:104F800003B0BDE8F08F00BF604BBBF670BCBFBE86
:104F9000C67E9B28FA27A1EA051D880439D0D4D9FA
:104FA000E599DBE66556ACC4442229F497FF2A4311
:104FB000A72394AB39A093FCC3595B6592CC0C8FAB
:104FC000D15D84854F7EA86FE0E62CFE144301A3DB
:104FD000A111084E827E53F735F23ABDBBD2D72AD3
:104FE00091D386EBA9CFDE4B8530EFD4F87CA21F9E
:104FF000094BC36403F18833036503F12943A3F527
:105000009613A3F68B634365A3F18833836500236E
:105010000360436083607047012345672DE9F041D9
:1050200006460F46154600F10C081FE03068C0F137
:105030004004AC4228BF2C4640443946224609F081
:105040001BF933682344336027442D1B402B0DD1BB
:105050003046FFF761FC726802F1400373609A42C8
:1050600002D9B3680133B36000233360002DDDD172
:10507000BDE8F08170B504460D4600F10C060368EA
:1050800041685A184260914202D9826801328260B6
:105090005A1C22608022F2542268382A0CD9B01897
:1050A0000021C2F1400209F0F2F8402323602046BB
:1050B000FFF732FC002323602268B0180021C2F100
:1050C000380209F0E4F86268A368DB0003EB52736E
:1050D000A360D200626004F14400211D042209F0A3
:1050E000CBF804F1480004F10801042209F0C4F8E7
:1050F0002046FFF711FC284604F14C01102209F06C
:10510000BBF82046FFF774FF70BD00BF2DE9F04FDC
:1051100093B0436D826D5340026D1340826D5340D6
:10512000C2681344C26C03EBF263DF4A1344C16DDF
:105130000B44016D4FEAB105416D81EA0504C16C74
:105140000C40416D4C4001690C4404EBF364144481
:10515000816D0C44C16C4FEAB10A85EA0A0119401D
:1051600069404669314401EBF4611144466D3144B4
:105170004FEAB30E8AEA0E06264086EA0A068369DB
:105180001E4406EBF166164406EB05094FEAB4042B
:105190008EEA04050D4085EA0E05C3691D4405EB42
:1051A000F965154455444FEAB10B84EA0B0303EA51
:1051B00009036340016A0B4403EBF5631344734432
:1051C0004FEAB9068BEA060C0CEA050C8CEA0B0CCC
:1051D000416A8C440CEBF36C9444A4444FEAB50A46
:1051E00086EA0A0119407140846A214401EBFC619E
:1051F000114459444FEAB3078AEA070909EA0C093E
:1052000089EA0A09C36A994409EBF1699144B144F6
:105210004FEABC0487EA04050D407D40036B1D4442
:1052200005EBF965154455444FEAB10884EA0803D3
:1052300003EA09036340416B0B4403EBF56313443A
:105240003B444FEAB90988EA090C0CEA050C8CEAE0
:10525000080C816B8C440CEBF36C9444A4444FEA2F
:10526000B50E89EA0E01194081EA0901C46B214497
:1052700001EBFC61114441444FEAB30B8EEA0B068B
:1052800006EA0C0686EA0E06036C1E4406EBF1667F
:1052900016444E444FEABC0C8BEA0C050D4085EADF
:1052A0000B05436C1D4405EBF665154475444FEA48
:1052B000B10A8CEA0A03334083EA0C03816C0B4485
:1052C00003EBF56313445B444FEAB6098AEA090429
:1052D0002C4084EA0A04C16A066C81EA060B416923
:1052E00081EA0B0BC16881EA0B0B4FEAFB7100915D
:1052F0000C4404EBF364144464444FEAB50789EAB0
:105300000701194081EA0901056BAE46456C8EEA3A
:10531000050B856985EA0B0B056985EA0B0B4FEADE
:10532000FB750195294401EBF461114451444FEAA6
:10533000B30887EA080626407E40436B9E46836C8E
:105340008EEA030AC36983EA0A0A436983EA0A0AFE
:105350004FEAFA7A564406EBF16616444E444FEA99
:10536000B40C88EA0C050D4085EA0805836B1C46E1
:10537000009B84EA0309046A84EA0909846984EACF
:1053800009094FEAF9794D4405EBF66515443D44AA
:105390004FEAB10E86EA0E0383EA0C03C16B019A51
:1053A0004A40416A4A40C1694A404FEAF2710F4699
:1053B0000B4403EBF56303F1DD4303F5B30303F59E
:1053C000D743213343444FEAB60685EA060484EA0C
:1053D0000E04016C81EA0A08816A81EA0808016A00
:1053E00081EA08084FEAF878444404EBF36404F1D6
:1053F000DD4404F5B30404F5D744213464444FEA92
:10540000B50B83EA0B017140426C82EA090CC26A57
:1054100082EA0C0C426A82EA0C0C4FEAFC7C614482
:1054200001EBF46101F1DD4101F5B30101F5D74173
:10543000213101EB0E0503954FEAB30284EA020322
:1054400083EA0B03856C0C9785EA070E056B85EAEA
:105450000E0E856A85EA0E0E4FEAFE7E73440399AE
:1054600003EBF16303F1DD4303F5B30303F5D74326
:1054700021331E444FEAB40481EA04055540009FDD
:1054800087EA0803416B4B40C16A4B404FEAF37314
:1054900002931D4405EBF66505F1DD4505F5B30501
:1054A00005F5D745213501E09979825A5D44039B82
:1054B0004FEAB303009373406340019981EA0C0BF8
:1054C000816B81EA0B0B016B81EA0B0B4FEAFB7BD3
:1054D000CDF80CB05B4403EBF56303F1DD4303F55A
:1054E000B30303F5D743213313444FEAB60685EAE5
:1054F000060200994A408AEA0E0BC16B81EA0B0B47
:10550000416B81EA0B0B4FEAFB7BCDF810B05A449C
:1055100002EBF36202F1DD4202F5B30202F5D7427B
:10552000213214444FEAB50583EA0502724002991C
:1055300089EA010B016C81EA0B0B816B81EA0B0B91
:105540004FEAFB7BCDF814B05A4402EBF46202F14F
:10555000DD4202F5B30202F5D7422132009911442F
:105560004FEAB303099384EA03026A400C9B9B460B
:10557000039B8BEA030B436C83EA0B0BC36B83EA3D
:105580000B0B4FEAFB7BCDF818B05A4402EBF162EB
:1055900002F1DD4202F5B30202F5D7422132164490
:1055A0004FEAB40481EA0402099B5A40049B88EA4A
:1055B000030B836C83EA0B0B036C83EA0B0B4FEA40
:1055C000FB7BCDF81CB05A4402EBF66202F1DD42DF
:1055D00002F5B30202F5D742213215444FEAB10178
:1055E00086EA01026240059B8CEA030B00978BEA76
:1055F000070B476C87EA0B0B4FEAFB7BCDF820B01B
:105600005A4402EBF56202F1DD4202F5B30202F503
:10561000D7422132099B13444FEAB60685EA0602B7
:105620004A40069F8EEA070B019F8BEA070B876CA7
:1056300087EA0B0B4FEAFB7BCDF824B05A4402EB10
:10564000F36202F1DD4202F5B30202F5D7422132E4
:1056500014444FEAB50583EA05027240029FBB4637
:10566000079F8BEA070B8BEA0A0B009F8BEA070B5D
:105670004FEAFB7BCDF800B05A4402EBF46202F132
:10568000DD4202F5B30202F5D742213211444FEA5E
:10569000B30384EA03026A40039FBB46089F8BEA78
:1056A000070B8BEA090B019F8BEA070B4FEAFB7B89
:1056B000CDF804B05A4402EBF16202F1DD4202F58A
:1056C000B30202F5D742213216444FEAB40481EA0C
:1056D00004025A40049FBB46099F8BEA070B0C9FAC
:1056E0008BEA070B8BEA0A0A4FEAFA7ACDF828A070
:1056F000524402EBF66202F1DD4202F5B30202F51A
:10570000D742213215444FEAB10186EA010A8AEAFA
:10571000040A059A9346009A8BEA020282EA08027A
:1057200082EA09094FEAF979CDF82C90CA440AEBCC
:10573000F56A0AF1DD4A0AF5B30A0AF5D74A0AF111
:10574000210A53444FEAB60685EA06024A40069FFC
:10575000B946019F89EA070989EA0C090C9F89EA81
:1057600007094FEAF979CDF830904A4402EBF36229
:1057700002F1DD4202F5B30202F5D74221321444B0
:105780004FEAB50583EA050989EA0609079A9246B0
:105790000A9A8AEA020282EA0E0282EA08084FEABC
:1057A000F878CDF83480C14409EBF46909F1DD499A
:1057B00009F5B30909F5D74909F1210949444FEA27
:1057C000B30384EA03026A40089FB8460B9F88EA45
:1057D0000708029F88EA070888EA0C0C4FEAFC7C5D
:1057E000CDF838C0624402EBF16202F1DD4202F50D
:1057F000B30202F5D742213216444FEAB40481EADB
:10580000040C8CEA030C099A90460C9A88EA02026E
:10581000039F7A4082EA0E0E4FEAFE7ECDF83CE00E
:10582000F4440CEBF66CDE4F67443D444FEAB101A3
:1058300006EA010746EA010222403A43009FBE46BB
:105840000D9F8EEA070C049F8CEA070C029F8CEADE
:10585000070C4FEAFC7E7746CDF808E0D71907EB36
:10586000F567D04A17443B444FEAB60905EA090EEA
:1058700045EA09070F404EEA0707019EB6460E9E0D
:105880008EEA060B059E8BEA060B039E8BEA060B3F
:105890004FEAFB7ECDF80CE0774407EBF367174443
:1058A0003C444FEAB50503EA050C43EA050E0EEA4F
:1058B00009074CEA070E0A9EB4460F9E8CEA060BB7
:1058C000069E8BEA060B049F8BEA070B4FEAFB7CD4
:1058D000CDF810C0E6440EEBF46E964471444FEAE6
:1058E000B30304EA030E44EA03072F404EEA070716
:1058F0000B9EB646029E8EEA060B8BEA0A0B059EAD
:105900008BEA060B4FEAFB7ECDF814E0774407EBF9
:10591000F167174409EB07064FEAB40401EA040EE5
:1059200041EA040C0CEA03074EEA070C0C9FBE4642
:10593000039F8EEA070B089F8BEA070B069F8BEAF3
:10594000070B4FEAFB7ECDF818E00CEB0E0909EBD4
:10595000F6699144A9444FEAB10106EA010C46EA0E
:10596000010E0EEA04054CEA050E0D9DAC46049DA1
:105970008CEA0507099D6F4055466F404FEAF77561
:1059800007950EEB050C0CEBF96C94449C444FEA24
:10599000B60609EA060549EA06030B402B430E9DAD
:1059A000AE46059D8EEA050B009D8BEA050B089F10
:1059B0008BEA070B4FEAFB7ECDF820E0734403EB44
:1059C000FC6313441C444FEAB90A0CEA0A054CEA8A
:1059D0000A0333402B430F9DAE46069D8EEA050811
:1059E000019F88EA0708099D88EA05084FEAF87EC2
:1059F000CDF824E09E440EEBF46E964471444FEAD9
:105A0000BC0E04EA0E0744EA0E0505EA0A0347EA5B
:105A10000305029B9C46079B8CEA030C0A9B8CEABD
:105A2000030C009F8CEA070C4FEAFC7CCDF800C009
:105A3000654405EBF165154435444FEAB40601EAC7
:105A4000060941EA060404EA0E0349EA0304039B3B
:105A50009C46089B8CEA03080B9B88EA0308019F7D
:105A600088EA07084FEAF87CCDF840C004EB0C093F
:105A700009EBF5699144D1444FEAB10105EA01040B
:105A800045EA010C0CEA060344EA030C049CA04618
:105A9000099C88EA04070C9C67400A9B5F404FEA18
:105AA000F7741194A4440CEBF96C9444F4444FEA59
:105AB000B50509EA050449EA05030B402343059CA3
:105AC000009F84EA070A0D9F8AEA070A0B9C8AEA6C
:105AD000040A4FEAFA7ECDF804E0734403EBFC635A
